:03000000020CE807
:0C0CE800787FE4F6D8FD75811702080043
:100BB70020454E5445522050415353574F52443AC3
:100BC700202020202000434F5252454354205041BB
:100BD7005353574F5244202020002041434345534D
:100BE70053204752414E5445442020002057524F2E
:100BF7004E472050415353574F5244202000204125
:100C070043434553532044454E4945442020200043
:090C1700313541382A443623002E
:100C2000E4F5A0C282C280C2817F38FE120CC412D9
:100C30000C667F067E00120CC4120C667F0C7E00D0
:100C4000120CC4120C667F017E00120CC4120C66DA
:070C50007F807E00020CC44E
:100C5700120CC47F047E00120C6A7F80120CC47FC2
:030C6700047E0008
:100C6A00E4FDFCC3ED9FEC9E5015E4FBFA0BBB00C0
:0F0C7A00010ABA01F8BB7EF50DBD00010C80E444
:010C89002248
:100CC400C280C281D2828FA07F0A7E00120C6AC2C7
:020CD40082227A
:100CD600D280C281D2828FA07F0A7E00120C6AC2A5
:020CE600822268
:100C8A008B158A168917AB15AA16A917120A0360BB
:100C9A00130517E5177002051614F9120A03FF1255
:050CAA000CD680E222DF
:100CAF00E5B0B40F0553B00F80F67F147E00120C21
:050CBF006A53B00F2292
:10080000120C207F807E00120C637BFF7A0B79B77D
:10081000120C8A120C667FC0120C63E4F513F514F7
:1008200075B00FE5B0640F600553B00F80F5E5B00B
:10083000B40F0553B00F80F67F147E00120C6A537C
:10084000B00FE5B0B40F05120CAF80F6C2B4D2B54C
:10085000D2B6D2B7E5B0B4EE0E7F41120CD6740A10
:100860002514F876418037E5B0B4ED0E7F33120CD5
:10087000D6740A2514F876338024E5B0B4EB0E7FE5
:1008800032120CD6740A2514F876328011E5B0B411
:10089000E70C7F31120CD6740A2514F87631D2B4E5
:1008A000C2B5D2B6D2B7E5B0B4DE0E7F42120CD6D6
:1008B000740A2514F876428037E5B0B4DD0E7F3631
:1008C000120CD6740A2514F876368024E5B0B4DB11
:1008D0000E7F35120CD6740A2514F876358011E592
:1008E000B0B4D70C7F34120CD6740A2514F87634C1
:1008F000D2B4D2B5C2B6D2B7E5B0B4BE0E7F431201
:100900000CD6740A2514F876438037E5B0B4BD0ED2
:100910007F39120CD6740A2514F876398024E5B094
:10092000B4BB0E7F38120CD6740A2514F8763880C2
:1009300011E5B0B4B70C7F37120CD6740A2514F841
:100940007637D2B4D2B5D2B6C2B7E5B0B47E0E7F98
:1009500044120CD6740A2514F876448037E5B0B4F6
:100960007D0E7F23120CD6740A2514F8762380247A
:10097000E5B0B47B0E7F30120CD6740A2514F876DD
:10098000308011E5B0B4770C7F2A120CD6740A259A
:1009900014F8762A0514E51470020513C39408E5CB
:1009A0001394005003020820E4F51278177C0C7DA4
:1009B000FFFB7A00790A120B9AEF3395E0F5088F66
:1009C0000945097F01701CFE120C577BFF7A0B79D9
:1009D000CD120C8A7FC07E00120C637BFF7A0B79EC
:1009E000E1801B7E00120C577BFF7A0B79F3120C0F
:1009F0008A7FC07E00120C637BFF7A0C7905120C93
:030A00008A80FEEB
:100A0300BB010689828A83E0225002E722BBFE02F1
:090A1300E32289828A83E4932224
:100A1C00E3F5F009E208B5F06D606B80F3E3F5F0F7
:100A2C0009E608B5F060605E80F387F009E608B56A
:100A3C00F054605280F487F009E208B5F048604643
:100A4C0080F488828C8387F009E0A3B5F038603697
:100A5C0080F488828C8387F009E493A3B5F0276037
:100A6C002580F388828C83E3F5F009E0A3B5F016BA
:100A7C00601480F388828C83E3F5F009E493A3B5CA
:100A8C00F004600280F2020B47808580E7808E8044
:100A9C00D2803C8015806C807E809B80B5808B8062
:100AAC00A1804F8070803A020B5389828A83ECFAC2
:100ABC00E493F5F0A3C8C582C8CCC583CCE493A35A
:100ACC00C8C582C8CCC583CCB5F070606E80E18996
:100ADC00828A83E493F5F0A3E208B5F05E605C8053
:100AEC00F289828A83E0F5F0A3E608B5F04D604BFD
:100AFC0080F389828A83E0F5F0A3E208B5F03C60CC
:100B0C003A80F389828A83E493F5F0A3E608B5F082
:100B1C002A602880F2805389828A83ECFAE493F568
:100B2C00F0A3C8C582C8CCC583CCE0A3C8C582C815
:100B3C00CCC583CCB5F004600280E27FFFB5F00237
:100B4C000F2240027F012289828A83ECFAE0F5F0C1
:100B5C00A3C8C582C8CCC583CCE0A3C8C582C8CC09
:100B6C00C583CCB5F0D560D380E389828A83ECFA57
:100B7C00E0F5F0A3C8C582C8CCC583CCE493A3C868
:100B8C00C582C8CCC583CCB5F0B160AF80E288F02B
:100B9C00ED2402B4040050A3F582EB2402B404004B
:0B0BAC0050992323458223900A957383
:00000001FF
