:03000000020800F3
:0C080000787FE4F6D8FD758112020847ED
:100A4F0020202053544F50574154434820202020FA
:080A5F002000202020202000CF
:100A7900020A0000020C000002080000020E000039
:1009CF00E4F5A0C282C280C2817F38FE120A67128C
:1009DF000A2B7F067E00120A67120A2B7F0C7E00FD
:1009EF00120A67120A2B7F017E00120A67120A2B66
:0709FF007F807E00020A6701
:040A2B007F047E00C6
:100A2F00E4FDFCC3ED9FEC9E5015E4FBFA0BBB00FD
:0F0A3F00010ABA01F8BB7EF50DBD00010C80E481
:010A4E002285
:100A6700C280C281D2828FA07F0A7E00120A2FC263
:020A77008222D9
:10097900AF8CEFFEAD8A7C00E42DF509EC3EF5085D
:10098900FEAF097D3C1209248E0A8F0B7C007D3C49
:100999001209248E0C8F0D7C007D0A120924EF2484
:1009A90030FF1209BDAE0CAF0D7D0A7C001209247F
:0409B900ED2430FFFA
:1009BD00D280C281D2828FA07F0A7E00120A2FC2FE
:0209CD00822284
:100A06008B108A118912AB10AA11A91212090B6058
:100A1600130512E5127002051114F912090BFF12E3
:050A260009BD80E22281
:10088C00758905E4F58CF58A75900F1209CF7F8078
:10089C007E00120A677BFF7A0A794F120A06020859
:1008AC00D130902BD28C1209797F3A1209BDAE0A45
:1008BC00AF0B7C007D0A1209247D061209B4AE0A26
:1008CC00AF0B1209B27FC07E00120A670208AD207E
:1008DC0090CFC28C1209797F3A1209BDAE0AAF0BC8
:1008EC007C007D0A120924EF2430FF1209BDAE0AE8
:0F08FC00AF0B1209B27FC07E00120A670208DB41
:10080C0002088CE493A3F8E493A34003F68001F26E
:10081C0008DFF48029E493A3F85407240CC8C333ED
:10082C00C4540F4420C8834004F456800146F6DFBC
:10083C00E4800B0102040810204080900A79E47EC9
:10084C00019360BCA3FF543F30E509541FFEE493B1
:10085C00A360010ECF54C025E060A840B8E493A378
:10086C00FAE493A3F8E493A3C8C582C8CAC583CAA3
:10087C00F0A3C8C582C8CAC583CADFE9DEE780BE5B
:010A8900006C
:10090B00BB010689828A83E0225002E722BBFE02EA
:09091B00E32289828A83E493221D
:10092400BC000BBE0029EF8DF084FFADF022E4CCB7
:10093400F875F008EF2FFFEE33FEEC33FCEE9DEC80
:10094400984005FCEE9DFE0FD5F0E9E4CEFD22EDC6
:10095400F8F5F0EE8420D21CFEADF075F008EF2F10
:10096400FFED33FD4007985006D5F0F222C398FD01
:050974000FD5F0EA229E
:00000001FF
